{
  "_format": "hh-sol-artifact-1",
  "contractName": "NftCollection",
  "sourceName": "contracts/NftCollection.sol",
  "abi": [
    {
      "inputs": [],
      "stateMutability": "nonpayable",
      "type": "constructor"
    },
    {
      "inputs": [],
      "name": "pauseMinting",
      "outputs": [],
      "stateMutability": "nonpayable",
      "type": "function"
    },
    {
      "inputs": [
        {
          "internalType": "uint256",
          "name": "tokenId",
          "type": "uint256"
        }
      ],
      "name": "tokenURI",
      "outputs": [
        {
          "internalType": "string",
          "name": "",
          "type": "string"
        }
      ],
      "stateMutability": "view",
      "type": "function"
    },
    {
      "inputs": [],
      "name": "unpauseMinting",
      "outputs": [],
      "stateMutability": "nonpayable",
      "type": "function"
    }
  ],
  "bytecode": "0x608060405234801561001057600080fd5b50336000806101000a81548173ffffffffffffffffffffffffffffffffffffffff021916908373ffffffffffffffffffffffffffffffffffffffff16021790555060008060146101000a81548160ff0219169083151502179055506108fb8061007a6000396000f3fe608060405234801561001057600080fd5b50600436106100415760003560e01c8063ae20032214610046578063c87b56dd14610050578063da8fbf2a14610080575b600080fd5b61004e61008a565b005b61006a60048036038101906100659190610418565b610134565b60405161007791906105ce565b60405180910390f35b6100886101ab565b005b60008054906101000a900473ffffffffffffffffffffffffffffffffffffffff1673ffffffffffffffffffffffffffffffffffffffff163373ffffffffffffffffffffffffffffffffffffffff1614610118576040517f08c379a000000000000000000000000000000000000000000000000000000000815260040161010f90610610565b60405180910390fd5b60008060146101000a81548160ff021916908315150217905550565b606060008211610179576040517f08c379a0000000000000000000000000000000000000000000000000000000008152600401610170906105f0565b60405180910390fd5b600161018483610256565b6040516020016101959291906105aa565b6040516020818303038152906040529050919050565b60008054906101000a900473ffffffffffffffffffffffffffffffffffffffff1673ffffffffffffffffffffffffffffffffffffffff163373ffffffffffffffffffffffffffffffffffffffff1614610239576040517f08c379a000000000000000000000000000000000000000000000000000000000815260040161023090610610565b60405180910390fd5b6001600060146101000a81548160ff021916908315150217905550565b6060600082141561029e576040518060400160405280600181526020017f300000000000000000000000000000000000000000000000000000000000000081525090506103fe565b600082905060005b600082146102d05780806102b990610796565b915050600a826102c991906106c2565b91506102a6565b60008167ffffffffffffffff811115610312577f4e487b7100000000000000000000000000000000000000000000000000000000600052604160045260246000fd5b6040519080825280601f01601f1916602001820160405280156103445781602001600182028036833780820191505090505b5090505b600085146103f75760018261035d91906106f3565b9150600a8561036c91906107df565b6030610378919061066c565b60f81b8183815181106103b4577f4e487b7100000000000000000000000000000000000000000000000000000000600052603260045260246000fd5b60200101907effffffffffffffffffffffffffffffffffffffffffffffffffffffffffffff1916908160001a905350600a856103f091906106c2565b9450610348565b8093505050505b919050565b600081359050610412816108ae565b92915050565b60006020828403121561042a57600080fd5b600061043884828501610403565b91505092915050565b600061044c82610645565b6104568185610650565b9350610466818560208601610731565b61046f8161089d565b840191505092915050565b600061048582610645565b61048f8185610661565b935061049f818560208601610731565b80840191505092915050565b600081546104b881610764565b6104c28186610661565b945060018216600081146104dd57600181146104ee57610521565b60ff19831686528186019350610521565b6104f785610630565b60005b83811015610519578154818901526001820191506020810190506104fa565b838801955050505b50505092915050565b6000610537601483610650565b91507f546f6b656e20646f6573206e6f742065786973740000000000000000000000006000830152602082019050919050565b6000610577600983610650565b91507f4e6f742061646d696e00000000000000000000000000000000000000000000006000830152602082019050919050565b60006105b682856104ab565b91506105c2828461047a565b91508190509392505050565b600060208201905081810360008301526105e88184610441565b905092915050565b600060208201905081810360008301526106098161052a565b9050919050565b600060208201905081810360008301526106298161056a565b9050919050565b60008190508160005260206000209050919050565b600081519050919050565b600082825260208201905092915050565b600081905092915050565b600061067782610727565b915061068283610727565b9250827fffffffffffffffffffffffffffffffffffffffffffffffffffffffffffffffff038211156106b7576106b6610810565b5b828201905092915050565b60006106cd82610727565b91506106d883610727565b9250826106e8576106e761083f565b5b828204905092915050565b60006106fe82610727565b915061070983610727565b92508282101561071c5761071b610810565b5b828203905092915050565b6000819050919050565b60005b8381101561074f578082015181840152602081019050610734565b8381111561075e576000848401525b50505050565b6000600282049050600182168061077c57607f821691505b602082108114156107905761078f61086e565b5b50919050565b60006107a182610727565b91507fffffffffffffffffffffffffffffffffffffffffffffffffffffffffffffffff8214156107d4576107d3610810565b5b600182019050919050565b60006107ea82610727565b91506107f583610727565b9250826108055761080461083f565b5b828206905092915050565b7f4e487b7100000000000000000000000000000000000000000000000000000000600052601160045260246000fd5b7f4e487b7100000000000000000000000000000000000000000000000000000000600052601260045260246000fd5b7f4e487b7100000000000000000000000000000000000000000000000000000000600052602260045260246000fd5b6000601f19601f8301169050919050565b6108b781610727565b81146108c257600080fd5b5056fea2646970667358221220e6d008bb1a2444cd2c3c3b6c16a46b7b945d5fae810442be5cf137510ee2e30164736f6c63430008000033",
  "linkReferences": {},
  "deployedLinkReferences": {}
}